{
  "contractName": "Lottery",
  "abi": [
    {
      "constant": true,
      "inputs": [],
      "name": "minimumStakeInWei",
      "outputs": [
        {
          "name": "",
          "type": "uint256"
        }
      ],
      "payable": false,
      "stateMutability": "view",
      "type": "function"
    },
    {
      "constant": true,
      "inputs": [
        {
          "name": "",
          "type": "uint256"
        }
      ],
      "name": "participants",
      "outputs": [
        {
          "name": "",
          "type": "address"
        }
      ],
      "payable": false,
      "stateMutability": "view",
      "type": "function"
    },
    {
      "constant": true,
      "inputs": [],
      "name": "pot",
      "outputs": [
        {
          "name": "",
          "type": "uint256"
        }
      ],
      "payable": false,
      "stateMutability": "view",
      "type": "function"
    },
    {
      "constant": true,
      "inputs": [],
      "name": "gameClosed",
      "outputs": [
        {
          "name": "",
          "type": "bool"
        }
      ],
      "payable": false,
      "stateMutability": "view",
      "type": "function"
    },
    {
      "constant": true,
      "inputs": [],
      "name": "winner",
      "outputs": [
        {
          "name": "",
          "type": "address"
        }
      ],
      "payable": false,
      "stateMutability": "view",
      "type": "function"
    },
    {
      "constant": true,
      "inputs": [],
      "name": "admin",
      "outputs": [
        {
          "name": "",
          "type": "address"
        }
      ],
      "payable": false,
      "stateMutability": "view",
      "type": "function"
    },
    {
      "inputs": [
        {
          "name": "minStakeInWei",
          "type": "uint256"
        }
      ],
      "payable": true,
      "stateMutability": "payable",
      "type": "constructor"
    },
    {
      "anonymous": false,
      "inputs": [
        {
          "indexed": false,
          "name": "adr",
          "type": "address"
        }
      ],
      "name": "UserRegistrationEvent",
      "type": "event"
    },
    {
      "anonymous": false,
      "inputs": [
        {
          "indexed": false,
          "name": "winner",
          "type": "address"
        }
      ],
      "name": "LotteryEnd",
      "type": "event"
    },
    {
      "anonymous": false,
      "inputs": [
        {
          "indexed": false,
          "name": "user",
          "type": "address"
        },
        {
          "indexed": false,
          "name": "currentPot",
          "type": "uint256"
        }
      ],
      "name": "UserPutBets",
      "type": "event"
    },
    {
      "anonymous": false,
      "inputs": [
        {
          "indexed": false,
          "name": "message",
          "type": "string"
        }
      ],
      "name": "WinnerTookItAll",
      "type": "event"
    },
    {
      "anonymous": false,
      "inputs": [
        {
          "indexed": false,
          "name": "message",
          "type": "string"
        }
      ],
      "name": "WinnerFailedToTakeWin",
      "type": "event"
    },
    {
      "anonymous": false,
      "inputs": [
        {
          "indexed": false,
          "name": "message",
          "type": "string"
        },
        {
          "indexed": false,
          "name": "someGuy",
          "type": "address"
        }
      ],
      "name": "SomeGuyTriedToTakeTheWinnings",
      "type": "event"
    },
    {
      "anonymous": false,
      "inputs": [
        {
          "indexed": false,
          "name": "message",
          "type": "string"
        }
      ],
      "name": "NobodyPlayedWithdrewInitialAmount",
      "type": "event"
    },
    {
      "constant": false,
      "inputs": [
        {
          "name": "_minimumStakeInWei",
          "type": "uint256"
        }
      ],
      "name": "resetLottery",
      "outputs": [],
      "payable": true,
      "stateMutability": "payable",
      "type": "function"
    },
    {
      "constant": false,
      "inputs": [],
      "name": "placeBets",
      "outputs": [],
      "payable": true,
      "stateMutability": "payable",
      "type": "function"
    },
    {
      "constant": false,
      "inputs": [],
      "name": "endLottery",
      "outputs": [],
      "payable": false,
      "stateMutability": "nonpayable",
      "type": "function"
    },
    {
      "constant": false,
      "inputs": [],
      "name": "rescueInitialAmountIfNobodyPlayed",
      "outputs": [],
      "payable": false,
      "stateMutability": "nonpayable",
      "type": "function"
    },
    {
      "constant": false,
      "inputs": [],
      "name": "kill",
      "outputs": [],
      "payable": false,
      "stateMutability": "nonpayable",
      "type": "function"
    },
    {
      "constant": true,
      "inputs": [],
      "name": "getWinner",
      "outputs": [
        {
          "name": "",
          "type": "address"
        }
      ],
      "payable": false,
      "stateMutability": "view",
      "type": "function"
    },
    {
      "constant": true,
      "inputs": [],
      "name": "getAdmin",
      "outputs": [
        {
          "name": "",
          "type": "address"
        }
      ],
      "payable": false,
      "stateMutability": "view",
      "type": "function"
    },
    {
      "constant": true,
      "inputs": [],
      "name": "getParticipants",
      "outputs": [
        {
          "name": "",
          "type": "address[]"
        }
      ],
      "payable": false,
      "stateMutability": "view",
      "type": "function"
    },
    {
      "constant": true,
      "inputs": [],
      "name": "getNrOfParticipants",
      "outputs": [
        {
          "name": "",
          "type": "uint256"
        }
      ],
      "payable": false,
      "stateMutability": "view",
      "type": "function"
    },
    {
      "constant": true,
      "inputs": [],
      "name": "getPot",
      "outputs": [
        {
          "name": "",
          "type": "uint256"
        }
      ],
      "payable": false,
      "stateMutability": "view",
      "type": "function"
    },
    {
      "constant": true,
      "inputs": [],
      "name": "getMinimumStakeInWei",
      "outputs": [
        {
          "name": "",
          "type": "uint256"
        }
      ],
      "payable": false,
      "stateMutability": "view",
      "type": "function"
    },
    {
      "constant": true,
      "inputs": [],
      "name": "isGameClosed",
      "outputs": [
        {
          "name": "",
          "type": "bool"
        }
      ],
      "payable": false,
      "stateMutability": "view",
      "type": "function"
    }
  ],
  "bytecode": "0x60606040526000600460006101000a81548160ff021916908315150217905550604051602080610fa683398101604052808051906020019091905050346000819055508060038190555033600460016101000a81548173ffffffffffffffffffffffffffffffffffffffff021916908373ffffffffffffffffffffffffffffffffffffffff1602179055506000600460006101000a81548160ff02191690831515021790555050610ef1806100b56000396000f3006060604052600436106100fc576000357c0100000000000000000000000000000000000000000000000000000000900463ffffffff16806304cc30dd146101015780631593a8c71461010b57806328927fe8146101205780632e4de0001461014957806335c1d34914610161578063403c9fa8146101c457806341c0e1b5146101ed5780634ba2363a146102025780635a5e346f1461022b5780635aa68ac0146102585780636d99ef46146102c25780636daca1ae146102ef5780636e9960c3146103045780638e7ea5b214610359578063a44af730146103ae578063dfbf53ae146103d7578063f13c0b2c1461042c578063f851a44014610455575b600080fd5b6101096104aa565b005b341561011657600080fd5b61011e6105b6565b005b341561012b57600080fd5b610133610784565b6040518082815260200191505060405180910390f35b61015f600480803590602001909190505061078a565b005b341561016c57600080fd5b610182600480803590602001909190505061087f565b604051808273ffffffffffffffffffffffffffffffffffffffff1673ffffffffffffffffffffffffffffffffffffffff16815260200191505060405180910390f35b34156101cf57600080fd5b6101d76108be565b6040518082815260200191505060405180910390f35b34156101f857600080fd5b6102006108c7565b005b341561020d57600080fd5b61021561095e565b6040518082815260200191505060405180910390f35b341561023657600080fd5b61023e610964565b604051808215151515815260200191505060405180910390f35b341561026357600080fd5b61026b61097b565b6040518080602001828103825283818151815260200191508051906020019060200280838360005b838110156102ae578082015181840152602081019050610293565b505050509050019250505060405180910390f35b34156102cd57600080fd5b6102d5610a0f565b604051808215151515815260200191505060405180910390f35b34156102fa57600080fd5b610302610a22565b005b341561030f57600080fd5b610317610b98565b604051808273ffffffffffffffffffffffffffffffffffffffff1673ffffffffffffffffffffffffffffffffffffffff16815260200191505060405180910390f35b341561036457600080fd5b61036c610bc2565b604051808273ffffffffffffffffffffffffffffffffffffffff1673ffffffffffffffffffffffffffffffffffffffff16815260200191505060405180910390f35b34156103b957600080fd5b6103c1610bec565b6040518082815260200191505060405180910390f35b34156103e257600080fd5b6103ea610bf9565b604051808273ffffffffffffffffffffffffffffffffffffffff1673ffffffffffffffffffffffffffffffffffffffff16815260200191505060405180910390f35b341561043757600080fd5b61043f610c1f565b6040518082815260200191505060405180910390f35b341561046057600080fd5b610468610c29565b604051808273ffffffffffffffffffffffffffffffffffffffff1673ffffffffffffffffffffffffffffffffffffffff16815260200191505060405180910390f35b6003543410156104b957600080fd5b600460009054906101000a900460ff161515156104d557600080fd5b346000808282540192505081905550600180548060010182816104f89190610e34565b9160005260206000209001600033909190916101000a81548173ffffffffffffffffffffffffffffffffffffffff021916908373ffffffffffffffffffffffffffffffffffffffff160217905550507f39cb12b1e799ef20d068f5d9b564eac6fdb737dd0718640634f899f2c0e947a533600054604051808373ffffffffffffffffffffffffffffffffffffffff1673ffffffffffffffffffffffffffffffffffffffff1681526020018281526020019250505060405180910390a1565b6000600460019054906101000a900473ffffffffffffffffffffffffffffffffffffffff1673ffffffffffffffffffffffffffffffffffffffff163373ffffffffffffffffffffffffffffffffffffffff1614151561061457600080fd5b60006001805490501415610642576001600460006101000a81548160ff021916908315150217905550610781565b60018054905060014303406001900481151561065a57fe5b06905060018181548110151561066c57fe5b906000526020600020900160009054906101000a900473ffffffffffffffffffffffffffffffffffffffff16600260006101000a81548173ffffffffffffffffffffffffffffffffffffffff021916908373ffffffffffffffffffffffffffffffffffffffff1602179055506001600460006101000a81548160ff0219169083151502179055507f5e1166b6f4c26f420f2b7b92285edb296205384cfcb82f1f13f2cf68aa0e76ad600260009054906101000a900473ffffffffffffffffffffffffffffffffffffffff16604051808273ffffffffffffffffffffffffffffffffffffffff1673ffffffffffffffffffffffffffffffffffffffff16815260200191505060405180910390a1610780610c4f565b5b50565b60035481565b600460019054906101000a900473ffffffffffffffffffffffffffffffffffffffff1673ffffffffffffffffffffffffffffffffffffffff163373ffffffffffffffffffffffffffffffffffffffff161415156107e657600080fd5b600460009054906101000a900460ff16151561080157600080fd5b60006001816108109190610e60565b50806003819055506000600460006101000a81548160ff021916908315150217905550346000819055506000600260006101000a81548173ffffffffffffffffffffffffffffffffffffffff021916908373ffffffffffffffffffffffffffffffffffffffff16021790555050565b60018181548110151561088e57fe5b90600052602060002090016000915054906101000a900473ffffffffffffffffffffffffffffffffffffffff1681565b60008054905090565b600460019054906101000a900473ffffffffffffffffffffffffffffffffffffffff1673ffffffffffffffffffffffffffffffffffffffff163373ffffffffffffffffffffffffffffffffffffffff1614151561092357600080fd5b600460019054906101000a900473ffffffffffffffffffffffffffffffffffffffff1673ffffffffffffffffffffffffffffffffffffffff16ff5b60005481565b6000600460009054906101000a900460ff16905090565b610983610e8c565b6001805480602002602001604051908101604052809291908181526020018280548015610a0557602002820191906000526020600020905b8160009054906101000a900473ffffffffffffffffffffffffffffffffffffffff1673ffffffffffffffffffffffffffffffffffffffff16815260200190600101908083116109bb575b5050505050905090565b600460009054906101000a900460ff1681565b600460019054906101000a900473ffffffffffffffffffffffffffffffffffffffff1673ffffffffffffffffffffffffffffffffffffffff163373ffffffffffffffffffffffffffffffffffffffff16141515610a7e57600080fd5b600460009054906101000a900460ff161515610a9957600080fd5b6000600180549050141515610aad57600080fd5b600460019054906101000a900473ffffffffffffffffffffffffffffffffffffffff1673ffffffffffffffffffffffffffffffffffffffff166108fc6000549081150290604051600060405180830381858888f1935050505015610b9657600080819055506001600460006101000a81548160ff0219169083151502179055507f567a0b79060198ae0b668ce3aa9947f65577a1ba841f02fb43835c32d4583ff460405180806020018281038252601b8152602001807f47616d6520636c6f7365642e204e6f626f647920706c617965642e000000000081525060200191505060405180910390a15b565b6000600460019054906101000a900473ffffffffffffffffffffffffffffffffffffffff16905090565b6000600260009054906101000a900473ffffffffffffffffffffffffffffffffffffffff16905090565b6000600180549050905090565b600260009054906101000a900473ffffffffffffffffffffffffffffffffffffffff1681565b6000600354905090565b600460019054906101000a900473ffffffffffffffffffffffffffffffffffffffff1681565b600460009054906101000a900460ff161515610c6a57600080fd5b6000805414158015610c8157506000600180549050115b1515610c8c57600080fd5b600260009054906101000a900473ffffffffffffffffffffffffffffffffffffffff1673ffffffffffffffffffffffffffffffffffffffff166108fc6000549081150290604051600060405180830381858888f1935050505015610d7d577f880d77427264a36aac2495d8830609288b9ec49a060c47f23254342957ca22f46040518080602001828103825260318152602001807f54686520706f7420616d6f756e74206973207472616e7366657272656420746f81526020017f2077696e6e65722e20456e6a6f7921212100000000000000000000000000000081525060400191505060405180910390a1610e32565b7f21ed8fd994656ca2c38a7a952652c2eea847a2a6c4f89ff3f021e6f8bc4d91736040518080602001828103825260488152602001807f576f6f6f70732c20736f6d657468696e672077656e742077726f6e672c20746881526020017f652077696e6e6572206469646e27742072656365697665642074686520706f7481526020017f20616d6f756e742e00000000000000000000000000000000000000000000000081525060600191505060405180910390a15b565b815481835581811511610e5b57818360005260206000209182019101610e5a9190610ea0565b5b505050565b815481835581811511610e8757818360005260206000209182019101610e869190610ea0565b5b505050565b602060405190810160405280600081525090565b610ec291905b80821115610ebe576000816000905550600101610ea6565b5090565b905600a165627a7a7230582057867345d7b2053fc10aa5e284947a9110302965d311c12354597496d1e6a94f0029",
  "source": "pragma solidity ^0.4.17;\nimport './LotteryEventDefinitions.sol';\n\ncontract Lottery is LotteryEventDefinitions {\n    uint public pot; // the money that one can win\n\n    address[] public participants; // the addreses of the participants that place bets\n    address public winner; // the winner (will be chosen upon ending the lottery)\n\n    // 1 ether = 1000000000000000000 wei\n    uint public minimumStakeInWei;\n    bool public gameClosed = false;\n\n    address public admin;\n\n    /* one can pass money initially to set an initial pot. */\n    function Lottery (\n        uint minStakeInWei\n    ) public payable {\n        pot = msg.value;\n        minimumStakeInWei = minStakeInWei;\n        admin = msg.sender;\n        gameClosed = false;\n    }\n\n    /** -------- MODIFIERS -------- **/\n\n    modifier adminOnly() {\n        require(msg.sender == admin);\n        _;\n    }\n\n    /** Note: old throw syntax in this modifier **/\n    modifier sufficientFunds() {\n        if (msg.value < minimumStakeInWei) { revert(); }\n        else { _; }\n    }\n\n    modifier gameOngoing() {\n        require(!gameClosed);\n        _;\n    }\n\n    modifier afterGameClosed() {\n        require(gameClosed);\n        _;\n    }\n\n    modifier winningConstraints() {\n        require(pot != 0 && participants.length > 0);\n        _;\n    }\n\n    modifier winnerTookPot() {\n        require(pot == 0);\n        _;\n    }\n\n    /** -------- FUNCTIONS -------- **/\n\n    function resetLottery(uint _minimumStakeInWei) public payable adminOnly afterGameClosed {\n        participants.length = 0;\n        minimumStakeInWei = _minimumStakeInWei;\n        gameClosed = false;\n        pot = msg.value;\n        winner = address(0);\n    }\n\n    function placeBets() public payable sufficientFunds gameOngoing {\n        pot += msg.value;\n        participants.push(msg.sender);\n        UserPutBets(msg.sender, pot);\n    }\n\n    function endLottery() public adminOnly {\n        if (participants.length == 0) {\n            gameClosed = true;\n            return;\n        }\n\n        // not very good random, but better than nothing at the moment.\n        uint randWinAddr = uint(block.blockhash(block.number - 1)) % participants.length;\n        winner = participants[randWinAddr];\n\n        gameClosed = true;\n\n        LotteryEnd(winner);\n\n        transferPotToWinner();\n    }\n\n    function transferPotToWinner() private afterGameClosed winningConstraints {\n        if (winner.send(pot)) {\n            //pot = 0;\n            //winner = address(0);\n            WinnerTookItAll(\"The pot amount is transferred to winner. Enjoy!!!\");\n        } else {\n            WinnerFailedToTakeWin(\"Wooops, something went wrong, the winner didn't received the pot amount.\");\n        }\n    }\n\n    /* This function can only be called by the owner of the contract.\n    The owner can only withdraw the pot if nobody played and the deadline has passed. */\n    function rescueInitialAmountIfNobodyPlayed() public adminOnly afterGameClosed {\n        require(participants.length == 0);\n\n        if (admin.send(pot)) {\n            pot = 0;\n            gameClosed = true;\n            NobodyPlayedWithdrewInitialAmount(\"Game closed. Nobody played.\");\n        }\n    }\n\n    function kill() public adminOnly {\n        selfdestruct(admin);\n    }\n\n    /** -------- GETTER -------- **/\n\n    function getWinner() public constant returns (address) {\n        return winner;\n    }\n\n    function getAdmin() public constant returns (address) {\n        return admin;\n    }\n\n    function getParticipants() public constant returns (address[]) {\n        return participants;\n    }\n\n    function getNrOfParticipants() public constant returns (uint) {\n        return participants.length;\n    }\n\n    function getPot() public constant returns(uint) {\n        return pot;\n    }\n\n    function getMinimumStakeInWei() public constant returns (uint) {\n        return minimumStakeInWei;\n    }\n\n    function isGameClosed() public constant returns (bool) {\n        return gameClosed;\n    }\n}\n",
  "sourcePath": "C:\\D Drive\\Kushal\\KryptoGuru\\1st Ethereum Project\\Truffle Proj\\contracts\\Lottery.sol",
  "compiler": {
    "name": "solc",
    "version": "0.4.19+commit.c4cbbb05.Emscripten.clang"
  },
  "schemaVersion": "1.0.1",
  "updatedAt": "2018-03-15T13:36:11.679Z"
}